{
  "_format": "hh-sol-artifact-1",
  "contractName": "ClearFeed",
  "sourceName": "contracts/clearfeed.sol",
  "abi": [
    {
      "inputs": [],
      "stateMutability": "nonpayable",
      "type": "constructor"
    },
    {
      "anonymous": false,
      "inputs": [
        {
          "indexed": true,
          "internalType": "address",
          "name": "owner",
          "type": "address"
        },
        {
          "indexed": true,
          "internalType": "address",
          "name": "approved",
          "type": "address"
        },
        {
          "indexed": true,
          "internalType": "uint256",
          "name": "tokenId",
          "type": "uint256"
        }
      ],
      "name": "Approval",
      "type": "event"
    },
    {
      "anonymous": false,
      "inputs": [
        {
          "indexed": true,
          "internalType": "address",
          "name": "owner",
          "type": "address"
        },
        {
          "indexed": true,
          "internalType": "address",
          "name": "operator",
          "type": "address"
        },
        {
          "indexed": false,
          "internalType": "bool",
          "name": "approved",
          "type": "bool"
        }
      ],
      "name": "ApprovalForAll",
      "type": "event"
    },
    {
      "anonymous": false,
      "inputs": [
        {
          "indexed": false,
          "internalType": "address",
          "name": "owner",
          "type": "address"
        },
        {
          "indexed": false,
          "internalType": "uint256",
          "name": "tokenId",
          "type": "uint256"
        }
      ],
      "name": "Minted",
      "type": "event"
    },
    {
      "anonymous": false,
      "inputs": [
        {
          "indexed": true,
          "internalType": "address",
          "name": "from",
          "type": "address"
        },
        {
          "indexed": true,
          "internalType": "address",
          "name": "to",
          "type": "address"
        },
        {
          "indexed": true,
          "internalType": "uint256",
          "name": "tokenId",
          "type": "uint256"
        }
      ],
      "name": "Transfer",
      "type": "event"
    },
    {
      "inputs": [
        {
          "internalType": "address",
          "name": "to",
          "type": "address"
        },
        {
          "internalType": "uint256",
          "name": "tokenId",
          "type": "uint256"
        }
      ],
      "name": "approve",
      "outputs": [],
      "stateMutability": "nonpayable",
      "type": "function"
    },
    {
      "inputs": [
        {
          "internalType": "address",
          "name": "owner",
          "type": "address"
        }
      ],
      "name": "balanceOf",
      "outputs": [
        {
          "internalType": "uint256",
          "name": "",
          "type": "uint256"
        }
      ],
      "stateMutability": "view",
      "type": "function"
    },
    {
      "inputs": [
        {
          "internalType": "uint256",
          "name": "tokenId",
          "type": "uint256"
        }
      ],
      "name": "getApproved",
      "outputs": [
        {
          "internalType": "address",
          "name": "",
          "type": "address"
        }
      ],
      "stateMutability": "view",
      "type": "function"
    },
    {
      "inputs": [
        {
          "internalType": "address",
          "name": "owner",
          "type": "address"
        },
        {
          "internalType": "address",
          "name": "operator",
          "type": "address"
        }
      ],
      "name": "isApprovedForAll",
      "outputs": [
        {
          "internalType": "bool",
          "name": "",
          "type": "bool"
        }
      ],
      "stateMutability": "view",
      "type": "function"
    },
    {
      "inputs": [],
      "name": "name",
      "outputs": [
        {
          "internalType": "string",
          "name": "",
          "type": "string"
        }
      ],
      "stateMutability": "view",
      "type": "function"
    },
    {
      "inputs": [
        {
          "internalType": "uint256",
          "name": "tokenId",
          "type": "uint256"
        }
      ],
      "name": "ownerOf",
      "outputs": [
        {
          "internalType": "address",
          "name": "",
          "type": "address"
        }
      ],
      "stateMutability": "view",
      "type": "function"
    },
    {
      "inputs": [
        {
          "internalType": "uint256",
          "name": "",
          "type": "uint256"
        }
      ],
      "name": "paramsByIndex",
      "outputs": [
        {
          "internalType": "string",
          "name": "beta_zero",
          "type": "string"
        },
        {
          "internalType": "string",
          "name": "beta_one",
          "type": "string"
        },
        {
          "internalType": "string",
          "name": "beta_two",
          "type": "string"
        }
      ],
      "stateMutability": "view",
      "type": "function"
    },
    {
      "inputs": [
        {
          "internalType": "string",
          "name": "zero",
          "type": "string"
        },
        {
          "internalType": "string",
          "name": "one",
          "type": "string"
        },
        {
          "internalType": "string",
          "name": "two",
          "type": "string"
        }
      ],
      "name": "safeMint",
      "outputs": [],
      "stateMutability": "nonpayable",
      "type": "function"
    },
    {
      "inputs": [
        {
          "internalType": "address",
          "name": "from",
          "type": "address"
        },
        {
          "internalType": "address",
          "name": "to",
          "type": "address"
        },
        {
          "internalType": "uint256",
          "name": "tokenId",
          "type": "uint256"
        }
      ],
      "name": "safeTransferFrom",
      "outputs": [],
      "stateMutability": "nonpayable",
      "type": "function"
    },
    {
      "inputs": [
        {
          "internalType": "address",
          "name": "from",
          "type": "address"
        },
        {
          "internalType": "address",
          "name": "to",
          "type": "address"
        },
        {
          "internalType": "uint256",
          "name": "tokenId",
          "type": "uint256"
        },
        {
          "internalType": "bytes",
          "name": "data",
          "type": "bytes"
        }
      ],
      "name": "safeTransferFrom",
      "outputs": [],
      "stateMutability": "nonpayable",
      "type": "function"
    },
    {
      "inputs": [
        {
          "internalType": "address",
          "name": "operator",
          "type": "address"
        },
        {
          "internalType": "bool",
          "name": "approved",
          "type": "bool"
        }
      ],
      "name": "setApprovalForAll",
      "outputs": [],
      "stateMutability": "nonpayable",
      "type": "function"
    },
    {
      "inputs": [
        {
          "internalType": "bytes4",
          "name": "interfaceId",
          "type": "bytes4"
        }
      ],
      "name": "supportsInterface",
      "outputs": [
        {
          "internalType": "bool",
          "name": "",
          "type": "bool"
        }
      ],
      "stateMutability": "view",
      "type": "function"
    },
    {
      "inputs": [],
      "name": "symbol",
      "outputs": [
        {
          "internalType": "string",
          "name": "",
          "type": "string"
        }
      ],
      "stateMutability": "view",
      "type": "function"
    },
    {
      "inputs": [
        {
          "internalType": "uint256",
          "name": "index",
          "type": "uint256"
        }
      ],
      "name": "tokenByIndex",
      "outputs": [
        {
          "internalType": "uint256",
          "name": "",
          "type": "uint256"
        }
      ],
      "stateMutability": "view",
      "type": "function"
    },
    {
      "inputs": [
        {
          "internalType": "address",
          "name": "owner",
          "type": "address"
        },
        {
          "internalType": "uint256",
          "name": "index",
          "type": "uint256"
        }
      ],
      "name": "tokenOfOwnerByIndex",
      "outputs": [
        {
          "internalType": "uint256",
          "name": "",
          "type": "uint256"
        }
      ],
      "stateMutability": "view",
      "type": "function"
    },
    {
      "inputs": [
        {
          "internalType": "uint256",
          "name": "tokenId",
          "type": "uint256"
        }
      ],
      "name": "tokenURI",
      "outputs": [
        {
          "internalType": "string",
          "name": "",
          "type": "string"
        }
      ],
      "stateMutability": "view",
      "type": "function"
    },
    {
      "inputs": [],
      "name": "totalSupply",
      "outputs": [
        {
          "internalType": "uint256",
          "name": "",
          "type": "uint256"
        }
      ],
      "stateMutability": "view",
      "type": "function"
    },
    {
      "inputs": [
        {
          "internalType": "address",
          "name": "from",
          "type": "address"
        },
        {
          "internalType": "address",
          "name": "to",
          "type": "address"
        },
        {
          "internalType": "uint256",
          "name": "tokenId",
          "type": "uint256"
        }
      ],
      "name": "transferFrom",
      "outputs": [],
      "stateMutability": "nonpayable",
      "type": "function"
    }
  ],
  "bytecode": "0x60806040523480156200001157600080fd5b506040518060400160405280600a81526020017f436c6561722046656564000000000000000000000000000000000000000000008152506040518060400160405280600381526020017f434c460000000000000000000000000000000000000000000000000000000000815250816000908051906020019062000096929190620000e5565b508060019080519060200190620000af929190620000e5565b505050620000c9600b620000cf60201b62000f851760201c565b620001fa565b6001816000016000828254019250508190555050565b828054620000f390620001c4565b90600052602060002090601f01602090048101928262000117576000855562000163565b82601f106200013257805160ff191683800117855562000163565b8280016001018555821562000163579182015b828111156200016257825182559160200191906001019062000145565b5b50905062000172919062000176565b5090565b5b808211156200019157600081600090555060010162000177565b5090565b7f4e487b7100000000000000000000000000000000000000000000000000000000600052602260045260246000fd5b60006002820490506001821680620001dd57607f821691505b60208210811415620001f457620001f362000195565b5b50919050565b6137c3806200020a6000396000f3fe608060405234801561001057600080fd5b50600436106101165760003560e01c80634f6ccce7116100a2578063a22cb46511610071578063a22cb46514610305578063b88d4fde14610321578063c87b56dd1461033d578063cdb06aee1461036d578063e985e9c51461039f57610116565b80634f6ccce7146102575780636352211e1461028757806370a08231146102b757806395d89b41146102e757610116565b80631042f0c6116100e95780631042f0c6146101b557806318160ddd146101d157806323b872dd146101ef5780632f745c591461020b57806342842e0e1461023b57610116565b806301ffc9a71461011b57806306fdde031461014b578063081812fc14610169578063095ea7b314610199575b600080fd5b61013560048036038101906101309190612260565b6103cf565b60405161014291906122a8565b60405180910390f35b6101536103e1565b604051610160919061235c565b60405180910390f35b610183600480360381019061017e91906123b4565b610473565b6040516101909190612422565b60405180910390f35b6101b360048036038101906101ae9190612469565b6104b9565b005b6101cf60048036038101906101ca91906125de565b6105d1565b005b6101d9610695565b6040516101e69190612694565b60405180910390f35b610209600480360381019061020491906126af565b6106a2565b005b61022560048036038101906102209190612469565b610702565b6040516102329190612694565b60405180910390f35b610255600480360381019061025091906126af565b6107a7565b005b610271600480360381019061026c91906123b4565b6107c7565b60405161027e9190612694565b60405180910390f35b6102a1600480360381019061029c91906123b4565b610838565b6040516102ae9190612422565b60405180910390f35b6102d160048036038101906102cc9190612702565b6108ea565b6040516102de9190612694565b60405180910390f35b6102ef6109a2565b6040516102fc919061235c565b60405180910390f35b61031f600480360381019061031a919061275b565b610a34565b005b61033b6004803603810190610336919061283c565b610a4a565b005b610357600480360381019061035291906123b4565b610aac565b604051610364919061235c565b60405180910390f35b610387600480360381019061038291906123b4565b610d2f565b604051610396939291906128bf565b60405180910390f35b6103b960048036038101906103b4919061290b565b610ef1565b6040516103c691906122a8565b60405180910390f35b60006103da82610f9b565b9050919050565b6060600080546103f09061297a565b80601f016020809104026020016040519081016040528092919081815260200182805461041c9061297a565b80156104695780601f1061043e57610100808354040283529160200191610469565b820191906000526020600020905b81548152906001019060200180831161044c57829003601f168201915b5050505050905090565b600061047e82611015565b6004600083815260200190815260200160002060009054906101000a900473ffffffffffffffffffffffffffffffffffffffff169050919050565b60006104c482610838565b90508073ffffffffffffffffffffffffffffffffffffffff168373ffffffffffffffffffffffffffffffffffffffff161415610535576040517f08c379a000000000000000000000000000000000000000000000000000000000815260040161052c90612a1e565b60405180910390fd5b8073ffffffffffffffffffffffffffffffffffffffff16610554611060565b73ffffffffffffffffffffffffffffffffffffffff16148061058357506105828161057d611060565b610ef1565b5b6105c2576040517f08c379a00000000000000000000000000000000000000000000000000000000081526004016105b990612ab0565b60405180910390fd5b6105cc8383611068565b505050565b60006105dd600b611121565b90506105e9600b610f85565b6000600c6000838152602001908152602001600020905084816000019080519060200190610618929190612151565b5083816001019080519060200190610631929190612151565b508281600201908051906020019061064a929190612151565b50610655338361112f565b7f30385c845b448a36257a6a1716e6ad2e1bc2cbe333cde1e69fe849ad6511adfe3383604051610686929190612ad0565b60405180910390a15050505050565b6000600980549050905090565b6106b36106ad611060565b8261114d565b6106f2576040517f08c379a00000000000000000000000000000000000000000000000000000000081526004016106e990612b6b565b60405180910390fd5b6106fd8383836111e2565b505050565b600061070d836108ea565b821061074e576040517f08c379a000000000000000000000000000000000000000000000000000000000815260040161074590612bfd565b60405180910390fd5b600760008473ffffffffffffffffffffffffffffffffffffffff1673ffffffffffffffffffffffffffffffffffffffff168152602001908152602001600020600083815260200190815260200160002054905092915050565b6107c283838360405180602001604052806000815250610a4a565b505050565b60006107d1610695565b8210610812576040517f08c379a000000000000000000000000000000000000000000000000000000000815260040161080990612c8f565b60405180910390fd5b6009828154811061082657610825612caf565b5b90600052602060002001549050919050565b6000806002600084815260200190815260200160002060009054906101000a900473ffffffffffffffffffffffffffffffffffffffff169050600073ffffffffffffffffffffffffffffffffffffffff168173ffffffffffffffffffffffffffffffffffffffff1614156108e1576040517f08c379a00000000000000000000000000000000000000000000000000000000081526004016108d890612d2a565b60405180910390fd5b80915050919050565b60008073ffffffffffffffffffffffffffffffffffffffff168273ffffffffffffffffffffffffffffffffffffffff16141561095b576040517f08c379a000000000000000000000000000000000000000000000000000000000815260040161095290612dbc565b60405180910390fd5b600360008373ffffffffffffffffffffffffffffffffffffffff1673ffffffffffffffffffffffffffffffffffffffff168152602001908152602001600020549050919050565b6060600180546109b19061297a565b80601f01602080910402602001604051908101604052809291908181526020018280546109dd9061297a565b8015610a2a5780601f106109ff57610100808354040283529160200191610a2a565b820191906000526020600020905b815481529060010190602001808311610a0d57829003601f168201915b5050505050905090565b610a46610a3f611060565b8383611449565b5050565b610a5b610a55611060565b8361114d565b610a9a576040517f08c379a0000000000000000000000000000000000000000000000000000000008152600401610a9190612b6b565b60405180910390fd5b610aa6848484846115b6565b50505050565b606060006040518060400160405280600a81526020017f436c65617220466565640000000000000000000000000000000000000000000081525090506000600c60008581526020019081526020016000206000018054610b0b9061297a565b80601f0160208091040260200160405190810160405280929190818152602001828054610b379061297a565b8015610b845780601f10610b5957610100808354040283529160200191610b84565b820191906000526020600020905b815481529060010190602001808311610b6757829003601f168201915b505050505090506000600c60008681526020019081526020016000206001018054610bae9061297a565b80601f0160208091040260200160405190810160405280929190818152602001828054610bda9061297a565b8015610c275780601f10610bfc57610100808354040283529160200191610c27565b820191906000526020600020905b815481529060010190602001808311610c0a57829003601f168201915b505050505090506000600c60008781526020019081526020016000206002018054610c519061297a565b80601f0160208091040260200160405190810160405280929190818152602001828054610c7d9061297a565b8015610cca5780601f10610c9f57610100808354040283529160200191610cca565b820191906000526020600020905b815481529060010190602001808311610cad57829003601f168201915b50505050509050600084848484604051602001610cea949392919061309e565b6040516020818303038152906040529050610d0481611612565b604051602001610d1491906131ac565b60405160208183030381529060405295505050505050919050565b600c602052806000526040600020600091509050806000018054610d529061297a565b80601f0160208091040260200160405190810160405280929190818152602001828054610d7e9061297a565b8015610dcb5780601f10610da057610100808354040283529160200191610dcb565b820191906000526020600020905b815481529060010190602001808311610dae57829003601f168201915b505050505090806001018054610de09061297a565b80601f0160208091040260200160405190810160405280929190818152602001828054610e0c9061297a565b8015610e595780601f10610e2e57610100808354040283529160200191610e59565b820191906000526020600020905b815481529060010190602001808311610e3c57829003601f168201915b505050505090806002018054610e6e9061297a565b80601f0160208091040260200160405190810160405280929190818152602001828054610e9a9061297a565b8015610ee75780601f10610ebc57610100808354040283529160200191610ee7565b820191906000526020600020905b815481529060010190602001808311610eca57829003601f168201915b5050505050905083565b6000600560008473ffffffffffffffffffffffffffffffffffffffff1673ffffffffffffffffffffffffffffffffffffffff16815260200190815260200160002060008373ffffffffffffffffffffffffffffffffffffffff1673ffffffffffffffffffffffffffffffffffffffff16815260200190815260200160002060009054906101000a900460ff16905092915050565b6001816000016000828254019250508190555050565b60007f780e9d63000000000000000000000000000000000000000000000000000000007bffffffffffffffffffffffffffffffffffffffffffffffffffffffff1916827bffffffffffffffffffffffffffffffffffffffffffffffffffffffff1916148061100e575061100d82611776565b5b9050919050565b61101e81611858565b61105d576040517f08c379a000000000000000000000000000000000000000000000000000000000815260040161105490612d2a565b60405180910390fd5b50565b600033905090565b816004600083815260200190815260200160002060006101000a81548173ffffffffffffffffffffffffffffffffffffffff021916908373ffffffffffffffffffffffffffffffffffffffff160217905550808273ffffffffffffffffffffffffffffffffffffffff166110db83610838565b73ffffffffffffffffffffffffffffffffffffffff167f8c5be1e5ebec7d5bd14f71427d1e84f3dd0314c0f7b2291e5b200ac8c7c3b92560405160405180910390a45050565b600081600001549050919050565b6111498282604051806020016040528060008152506118c4565b5050565b60008061115983610838565b90508073ffffffffffffffffffffffffffffffffffffffff168473ffffffffffffffffffffffffffffffffffffffff16148061119b575061119a8185610ef1565b5b806111d957508373ffffffffffffffffffffffffffffffffffffffff166111c184610473565b73ffffffffffffffffffffffffffffffffffffffff16145b91505092915050565b8273ffffffffffffffffffffffffffffffffffffffff1661120282610838565b73ffffffffffffffffffffffffffffffffffffffff1614611258576040517f08c379a000000000000000000000000000000000000000000000000000000000815260040161124f90613240565b60405180910390fd5b600073ffffffffffffffffffffffffffffffffffffffff168273ffffffffffffffffffffffffffffffffffffffff1614156112c8576040517f08c379a00000000000000000000000000000000000000000000000000000000081526004016112bf906132d2565b60405180910390fd5b6112d383838361191f565b6112de600082611068565b6001600360008573ffffffffffffffffffffffffffffffffffffffff1673ffffffffffffffffffffffffffffffffffffffff168152602001908152602001600020600082825461132e9190613321565b925050819055506001600360008473ffffffffffffffffffffffffffffffffffffffff1673ffffffffffffffffffffffffffffffffffffffff16815260200190815260200160002060008282546113859190613355565b92505081905550816002600083815260200190815260200160002060006101000a81548173ffffffffffffffffffffffffffffffffffffffff021916908373ffffffffffffffffffffffffffffffffffffffff160217905550808273ffffffffffffffffffffffffffffffffffffffff168473ffffffffffffffffffffffffffffffffffffffff167fddf252ad1be2c89b69c2b068fc378daa952ba7f163c4a11628f55a4df523b3ef60405160405180910390a461144483838361192f565b505050565b8173ffffffffffffffffffffffffffffffffffffffff168373ffffffffffffffffffffffffffffffffffffffff1614156114b8576040517f08c379a00000000000000000000000000000000000000000000000000000000081526004016114af906133f7565b60405180910390fd5b80600560008573ffffffffffffffffffffffffffffffffffffffff1673ffffffffffffffffffffffffffffffffffffffff16815260200190815260200160002060008473ffffffffffffffffffffffffffffffffffffffff1673ffffffffffffffffffffffffffffffffffffffff16815260200190815260200160002060006101000a81548160ff0219169083151502179055508173ffffffffffffffffffffffffffffffffffffffff168373ffffffffffffffffffffffffffffffffffffffff167f17307eab39ab6107e8899845ad3d59bd9653f200f220920489ca2b5937696c31836040516115a991906122a8565b60405180910390a3505050565b6115c18484846111e2565b6115cd84848484611934565b61160c576040517f08c379a000000000000000000000000000000000000000000000000000000000815260040161160390613489565b60405180910390fd5b50505050565b606060008251141561163557604051806020016040528060008152509050611771565b600060405180606001604052806040815260200161374e60409139905060006003600285516116649190613355565b61166e91906134d8565b600461167a9190613509565b67ffffffffffffffff811115611693576116926124b3565b5b6040519080825280601f01601f1916602001820160405280156116c55781602001600182028036833780820191505090505b509050600182016020820185865187015b80821015611731576003820191508151603f8160121c168501518453600184019350603f81600c1c168501518453600184019350603f8160061c168501518453600184019350603f81168501518453600184019350506116d6565b505060038651066001811461174d576002811461176057611768565b603d6001830353603d6002830353611768565b603d60018303535b50505080925050505b919050565b60007f80ac58cd000000000000000000000000000000000000000000000000000000007bffffffffffffffffffffffffffffffffffffffffffffffffffffffff1916827bffffffffffffffffffffffffffffffffffffffffffffffffffffffff1916148061184157507f5b5e139f000000000000000000000000000000000000000000000000000000007bffffffffffffffffffffffffffffffffffffffffffffffffffffffff1916827bffffffffffffffffffffffffffffffffffffffffffffffffffffffff1916145b80611851575061185082611acb565b5b9050919050565b60008073ffffffffffffffffffffffffffffffffffffffff166002600084815260200190815260200160002060009054906101000a900473ffffffffffffffffffffffffffffffffffffffff1673ffffffffffffffffffffffffffffffffffffffff1614159050919050565b6118ce8383611b35565b6118db6000848484611934565b61191a576040517f08c379a000000000000000000000000000000000000000000000000000000000815260040161191190613489565b60405180910390fd5b505050565b61192a838383611d0f565b505050565b505050565b60006119558473ffffffffffffffffffffffffffffffffffffffff16611e23565b15611abe578373ffffffffffffffffffffffffffffffffffffffff1663150b7a0261197e611060565b8786866040518563ffffffff1660e01b81526004016119a094939291906135b8565b602060405180830381600087803b1580156119ba57600080fd5b505af19250505080156119eb57506040513d601f19601f820116820180604052508101906119e89190613619565b60015b611a6e573d8060008114611a1b576040519150601f19603f3d011682016040523d82523d6000602084013e611a20565b606091505b50600081511415611a66576040517f08c379a0000000000000000000000000000000000000000000000000000000008152600401611a5d90613489565b60405180910390fd5b805181602001fd5b63150b7a0260e01b7bffffffffffffffffffffffffffffffffffffffffffffffffffffffff1916817bffffffffffffffffffffffffffffffffffffffffffffffffffffffff191614915050611ac3565b600190505b949350505050565b60007f01ffc9a7000000000000000000000000000000000000000000000000000000007bffffffffffffffffffffffffffffffffffffffffffffffffffffffff1916827bffffffffffffffffffffffffffffffffffffffffffffffffffffffff1916149050919050565b600073ffffffffffffffffffffffffffffffffffffffff168273ffffffffffffffffffffffffffffffffffffffff161415611ba5576040517f08c379a0000000000000000000000000000000000000000000000000000000008152600401611b9c90613692565b60405180910390fd5b611bae81611858565b15611bee576040517f08c379a0000000000000000000000000000000000000000000000000000000008152600401611be5906136fe565b60405180910390fd5b611bfa6000838361191f565b6001600360008473ffffffffffffffffffffffffffffffffffffffff1673ffffffffffffffffffffffffffffffffffffffff1681526020019081526020016000206000828254611c4a9190613355565b92505081905550816002600083815260200190815260200160002060006101000a81548173ffffffffffffffffffffffffffffffffffffffff021916908373ffffffffffffffffffffffffffffffffffffffff160217905550808273ffffffffffffffffffffffffffffffffffffffff16600073ffffffffffffffffffffffffffffffffffffffff167fddf252ad1be2c89b69c2b068fc378daa952ba7f163c4a11628f55a4df523b3ef60405160405180910390a4611d0b6000838361192f565b5050565b611d1a838383611e46565b600073ffffffffffffffffffffffffffffffffffffffff168373ffffffffffffffffffffffffffffffffffffffff161415611d5d57611d5881611e4b565b611d9c565b8173ffffffffffffffffffffffffffffffffffffffff168373ffffffffffffffffffffffffffffffffffffffff1614611d9b57611d9a8382611e94565b5b5b600073ffffffffffffffffffffffffffffffffffffffff168273ffffffffffffffffffffffffffffffffffffffff161415611ddf57611dda81612001565b611e1e565b8273ffffffffffffffffffffffffffffffffffffffff168273ffffffffffffffffffffffffffffffffffffffff1614611e1d57611e1c82826120d2565b5b5b505050565b6000808273ffffffffffffffffffffffffffffffffffffffff163b119050919050565b505050565b600980549050600a600083815260200190815260200160002081905550600981908060018154018082558091505060019003906000526020600020016000909190919091505550565b60006001611ea1846108ea565b611eab9190613321565b9050600060086000848152602001908152602001600020549050818114611f90576000600760008673ffffffffffffffffffffffffffffffffffffffff1673ffffffffffffffffffffffffffffffffffffffff168152602001908152602001600020600084815260200190815260200160002054905080600760008773ffffffffffffffffffffffffffffffffffffffff1673ffffffffffffffffffffffffffffffffffffffff168152602001908152602001600020600084815260200190815260200160002081905550816008600083815260200190815260200160002081905550505b6008600084815260200190815260200160002060009055600760008573ffffffffffffffffffffffffffffffffffffffff1673ffffffffffffffffffffffffffffffffffffffff16815260200190815260200160002060008381526020019081526020016000206000905550505050565b600060016009805490506120159190613321565b90506000600a600084815260200190815260200160002054905060006009838154811061204557612044612caf565b5b90600052602060002001549050806009838154811061206757612066612caf565b5b906000526020600020018190555081600a600083815260200190815260200160002081905550600a60008581526020019081526020016000206000905560098054806120b6576120b561371e565b5b6001900381819060005260206000200160009055905550505050565b60006120dd836108ea565b905081600760008573ffffffffffffffffffffffffffffffffffffffff1673ffffffffffffffffffffffffffffffffffffffff168152602001908152602001600020600083815260200190815260200160002081905550806008600084815260200190815260200160002081905550505050565b82805461215d9061297a565b90600052602060002090601f01602090048101928261217f57600085556121c6565b82601f1061219857805160ff19168380011785556121c6565b828001600101855582156121c6579182015b828111156121c55782518255916020019190600101906121aa565b5b5090506121d391906121d7565b5090565b5b808211156121f05760008160009055506001016121d8565b5090565b6000604051905090565b600080fd5b600080fd5b60007fffffffff0000000000000000000000000000000000000000000000000000000082169050919050565b61223d81612208565b811461224857600080fd5b50565b60008135905061225a81612234565b92915050565b600060208284031215612276576122756121fe565b5b60006122848482850161224b565b91505092915050565b60008115159050919050565b6122a28161228d565b82525050565b60006020820190506122bd6000830184612299565b92915050565b600081519050919050565b600082825260208201905092915050565b60005b838110156122fd5780820151818401526020810190506122e2565b8381111561230c576000848401525b50505050565b6000601f19601f8301169050919050565b600061232e826122c3565b61233881856122ce565b93506123488185602086016122df565b61235181612312565b840191505092915050565b600060208201905081810360008301526123768184612323565b905092915050565b6000819050919050565b6123918161237e565b811461239c57600080fd5b50565b6000813590506123ae81612388565b92915050565b6000602082840312156123ca576123c96121fe565b5b60006123d88482850161239f565b91505092915050565b600073ffffffffffffffffffffffffffffffffffffffff82169050919050565b600061240c826123e1565b9050919050565b61241c81612401565b82525050565b60006020820190506124376000830184612413565b92915050565b61244681612401565b811461245157600080fd5b50565b6000813590506124638161243d565b92915050565b600080604083850312156124805761247f6121fe565b5b600061248e85828601612454565b925050602061249f8582860161239f565b9150509250929050565b600080fd5b600080fd5b7f4e487b7100000000000000000000000000000000000000000000000000000000600052604160045260246000fd5b6124eb82612312565b810181811067ffffffffffffffff8211171561250a576125096124b3565b5b80604052505050565b600061251d6121f4565b905061252982826124e2565b919050565b600067ffffffffffffffff821115612549576125486124b3565b5b61255282612312565b9050602081019050919050565b82818337600083830152505050565b600061258161257c8461252e565b612513565b90508281526020810184848401111561259d5761259c6124ae565b5b6125a884828561255f565b509392505050565b600082601f8301126125c5576125c46124a9565b5b81356125d584826020860161256e565b91505092915050565b6000806000606084860312156125f7576125f66121fe565b5b600084013567ffffffffffffffff81111561261557612614612203565b5b612621868287016125b0565b935050602084013567ffffffffffffffff81111561264257612641612203565b5b61264e868287016125b0565b925050604084013567ffffffffffffffff81111561266f5761266e612203565b5b61267b868287016125b0565b9150509250925092565b61268e8161237e565b82525050565b60006020820190506126a96000830184612685565b92915050565b6000806000606084860312156126c8576126c76121fe565b5b60006126d686828701612454565b93505060206126e786828701612454565b92505060406126f88682870161239f565b9150509250925092565b600060208284031215612718576127176121fe565b5b600061272684828501612454565b91505092915050565b6127388161228d565b811461274357600080fd5b50565b6000813590506127558161272f565b92915050565b60008060408385031215612772576127716121fe565b5b600061278085828601612454565b925050602061279185828601612746565b9150509250929050565b600067ffffffffffffffff8211156127b6576127b56124b3565b5b6127bf82612312565b9050602081019050919050565b60006127df6127da8461279b565b612513565b9050828152602081018484840111156127fb576127fa6124ae565b5b61280684828561255f565b509392505050565b600082601f830112612823576128226124a9565b5b81356128338482602086016127cc565b91505092915050565b60008060008060808587031215612856576128556121fe565b5b600061286487828801612454565b945050602061287587828801612454565b93505060406128868782880161239f565b925050606085013567ffffffffffffffff8111156128a7576128a6612203565b5b6128b38782880161280e565b91505092959194509250565b600060608201905081810360008301526128d98186612323565b905081810360208301526128ed8185612323565b905081810360408301526129018184612323565b9050949350505050565b60008060408385031215612922576129216121fe565b5b600061293085828601612454565b925050602061294185828601612454565b9150509250929050565b7f4e487b7100000000000000000000000000000000000000000000000000000000600052602260045260246000fd5b6000600282049050600182168061299257607f821691505b602082108114156129a6576129a561294b565b5b50919050565b7f4552433732313a20617070726f76616c20746f2063757272656e74206f776e6560008201527f7200000000000000000000000000000000000000000000000000000000000000602082015250565b6000612a086021836122ce565b9150612a13826129ac565b604082019050919050565b60006020820190508181036000830152612a37816129fb565b9050919050565b7f4552433732313a20617070726f76652063616c6c6572206973206e6f7420746f60008201527f6b656e206f776e6572206e6f7220617070726f76656420666f7220616c6c0000602082015250565b6000612a9a603e836122ce565b9150612aa582612a3e565b604082019050919050565b60006020820190508181036000830152612ac981612a8d565b9050919050565b6000604082019050612ae56000830185612413565b612af26020830184612685565b9392505050565b7f4552433732313a2063616c6c6572206973206e6f7420746f6b656e206f776e6560008201527f72206e6f7220617070726f766564000000000000000000000000000000000000602082015250565b6000612b55602e836122ce565b9150612b6082612af9565b604082019050919050565b60006020820190508181036000830152612b8481612b48565b9050919050565b7f455243373231456e756d657261626c653a206f776e657220696e646578206f7560008201527f74206f6620626f756e6473000000000000000000000000000000000000000000602082015250565b6000612be7602b836122ce565b9150612bf282612b8b565b604082019050919050565b60006020820190508181036000830152612c1681612bda565b9050919050565b7f455243373231456e756d657261626c653a20676c6f62616c20696e646578206f60008201527f7574206f6620626f756e64730000000000000000000000000000000000000000602082015250565b6000612c79602c836122ce565b9150612c8482612c1d565b604082019050919050565b60006020820190508181036000830152612ca881612c6c565b9050919050565b7f4e487b7100000000000000000000000000000000000000000000000000000000600052603260045260246000fd5b7f4552433732313a20696e76616c696420746f6b656e2049440000000000000000600082015250565b6000612d146018836122ce565b9150612d1f82612cde565b602082019050919050565b60006020820190508181036000830152612d4381612d07565b9050919050565b7f4552433732313a2061646472657373207a65726f206973206e6f74206120766160008201527f6c6964206f776e65720000000000000000000000000000000000000000000000602082015250565b6000612da66029836122ce565b9150612db182612d4a565b604082019050919050565b60006020820190508181036000830152612dd581612d99565b9050919050565b600081905092915050565b7f7b00000000000000000000000000000000000000000000000000000000000000600082015250565b6000612e1d600183612ddc565b9150612e2882612de7565b600182019050919050565b7f226e616d65223a20220000000000000000000000000000000000000000000000600082015250565b6000612e69600983612ddc565b9150612e7482612e33565b600982019050919050565b6000612e8a826122c3565b612e948185612ddc565b9350612ea48185602086016122df565b80840191505092915050565b7f222c000000000000000000000000000000000000000000000000000000000000600082015250565b6000612ee6600283612ddc565b9150612ef182612eb0565b600282019050919050565b7f226465736372697074696f6e223a2022596f757220707269766174652070657260008201527f736f6e616c697a65642066656564000000000000000000000000000000000000602082015250565b6000612f58602e83612ddc565b9150612f6382612efc565b602e82019050919050565b7f22626574615f7a65726f223a2022000000000000000000000000000000000000600082015250565b6000612fa4600e83612ddc565b9150612faf82612f6e565b600e82019050919050565b7f22626574615f6f6e65223a202200000000000000000000000000000000000000600082015250565b6000612ff0600d83612ddc565b9150612ffb82612fba565b600d82019050919050565b7f22626574615f74776f223a202200000000000000000000000000000000000000600082015250565b600061303c600d83612ddc565b915061304782613006565b600d82019050919050565b7f7d00000000000000000000000000000000000000000000000000000000000000600082015250565b6000613088600183612ddc565b915061309382613052565b600182019050919050565b60006130a982612e10565b91506130b482612e5c565b91506130c08287612e7f565b91506130cb82612ed9565b91506130d682612f4b565b91506130e182612ed9565b91506130ec82612f97565b91506130f88286612e7f565b915061310382612ed9565b915061310e82612fe3565b915061311a8285612e7f565b915061312582612ed9565b91506131308261302f565b915061313c8284612e7f565b915061314782612ed9565b91506131528261307b565b915081905095945050505050565b7f646174613a6170706c69636174696f6e2f6a736f6e3b6261736536342c000000600082015250565b6000613196601d83612ddc565b91506131a182613160565b601d82019050919050565b60006131b782613189565b91506131c38284612e7f565b915081905092915050565b7f4552433732313a207472616e736665722066726f6d20696e636f72726563742060008201527f6f776e6572000000000000000000000000000000000000000000000000000000602082015250565b600061322a6025836122ce565b9150613235826131ce565b604082019050919050565b600060208201905081810360008301526132598161321d565b9050919050565b7f4552433732313a207472616e7366657220746f20746865207a65726f2061646460008201527f7265737300000000000000000000000000000000000000000000000000000000602082015250565b60006132bc6024836122ce565b91506132c782613260565b604082019050919050565b600060208201905081810360008301526132eb816132af565b9050919050565b7f4e487b7100000000000000000000000000000000000000000000000000000000600052601160045260246000fd5b600061332c8261237e565b91506133378361237e565b92508282101561334a576133496132f2565b5b828203905092915050565b60006133608261237e565b915061336b8361237e565b9250827fffffffffffffffffffffffffffffffffffffffffffffffffffffffffffffffff038211156133a05761339f6132f2565b5b828201905092915050565b7f4552433732313a20617070726f766520746f2063616c6c657200000000000000600082015250565b60006133e16019836122ce565b91506133ec826133ab565b602082019050919050565b60006020820190508181036000830152613410816133d4565b9050919050565b7f4552433732313a207472616e7366657220746f206e6f6e20455243373231526560008201527f63656976657220696d706c656d656e7465720000000000000000000000000000602082015250565b60006134736032836122ce565b915061347e82613417565b604082019050919050565b600060208201905081810360008301526134a281613466565b9050919050565b7f4e487b7100000000000000000000000000000000000000000000000000000000600052601260045260246000fd5b60006134e38261237e565b91506134ee8361237e565b9250826134fe576134fd6134a9565b5b828204905092915050565b60006135148261237e565b915061351f8361237e565b9250817fffffffffffffffffffffffffffffffffffffffffffffffffffffffffffffffff0483118215151615613558576135576132f2565b5b828202905092915050565b600081519050919050565b600082825260208201905092915050565b600061358a82613563565b613594818561356e565b93506135a48185602086016122df565b6135ad81612312565b840191505092915050565b60006080820190506135cd6000830187612413565b6135da6020830186612413565b6135e76040830185612685565b81810360608301526135f9818461357f565b905095945050505050565b60008151905061361381612234565b92915050565b60006020828403121561362f5761362e6121fe565b5b600061363d84828501613604565b91505092915050565b7f4552433732313a206d696e7420746f20746865207a65726f2061646472657373600082015250565b600061367c6020836122ce565b915061368782613646565b602082019050919050565b600060208201905081810360008301526136ab8161366f565b9050919050565b7f4552433732313a20746f6b656e20616c7265616479206d696e74656400000000600082015250565b60006136e8601c836122ce565b91506136f3826136b2565b602082019050919050565b60006020820190508181036000830152613717816136db565b9050919050565b7f4e487b7100000000000000000000000000000000000000000000000000000000600052603160045260246000fdfe4142434445464748494a4b4c4d4e4f505152535455565758595a6162636465666768696a6b6c6d6e6f707172737475767778797a303132333435363738392b2fa26469706673582212205521917eaf0b7f93220eb510d9286295334b8555f4c190e7bb6557030bbe1bca64736f6c63430008090033",
  "linkReferences": {},
  "deployedLinkReferences": {}
}