{
  "_format": "hh-sol-artifact-1",
  "contractName": "ClearFeed",
  "sourceName": "contracts/clearfeed.sol",
  "abi": [
    {
      "inputs": [],
      "stateMutability": "nonpayable",
      "type": "constructor"
    },
    {
      "anonymous": false,
      "inputs": [
        {
          "indexed": true,
          "internalType": "address",
          "name": "owner",
          "type": "address"
        },
        {
          "indexed": true,
          "internalType": "address",
          "name": "approved",
          "type": "address"
        },
        {
          "indexed": true,
          "internalType": "uint256",
          "name": "tokenId",
          "type": "uint256"
        }
      ],
      "name": "Approval",
      "type": "event"
    },
    {
      "anonymous": false,
      "inputs": [
        {
          "indexed": true,
          "internalType": "address",
          "name": "owner",
          "type": "address"
        },
        {
          "indexed": true,
          "internalType": "address",
          "name": "operator",
          "type": "address"
        },
        {
          "indexed": false,
          "internalType": "bool",
          "name": "approved",
          "type": "bool"
        }
      ],
      "name": "ApprovalForAll",
      "type": "event"
    },
    {
      "anonymous": false,
      "inputs": [
        {
          "indexed": false,
          "internalType": "address",
          "name": "owner",
          "type": "address"
        },
        {
          "indexed": false,
          "internalType": "uint256",
          "name": "tokenId",
          "type": "uint256"
        }
      ],
      "name": "Minted",
      "type": "event"
    },
    {
      "anonymous": false,
      "inputs": [
        {
          "indexed": true,
          "internalType": "address",
          "name": "from",
          "type": "address"
        },
        {
          "indexed": true,
          "internalType": "address",
          "name": "to",
          "type": "address"
        },
        {
          "indexed": true,
          "internalType": "uint256",
          "name": "tokenId",
          "type": "uint256"
        }
      ],
      "name": "Transfer",
      "type": "event"
    },
    {
      "inputs": [
        {
          "internalType": "address",
          "name": "to",
          "type": "address"
        },
        {
          "internalType": "uint256",
          "name": "tokenId",
          "type": "uint256"
        }
      ],
      "name": "approve",
      "outputs": [],
      "stateMutability": "nonpayable",
      "type": "function"
    },
    {
      "inputs": [
        {
          "internalType": "address",
          "name": "owner",
          "type": "address"
        }
      ],
      "name": "balanceOf",
      "outputs": [
        {
          "internalType": "uint256",
          "name": "",
          "type": "uint256"
        }
      ],
      "stateMutability": "view",
      "type": "function"
    },
    {
      "inputs": [
        {
          "internalType": "uint256",
          "name": "tokenId",
          "type": "uint256"
        },
        {
          "internalType": "uint256[8]",
          "name": "proof",
          "type": "uint256[8]"
        },
        {
          "internalType": "uint256[4]",
          "name": "input",
          "type": "uint256[4]"
        },
        {
          "internalType": "string",
          "name": "beta_zero",
          "type": "string"
        },
        {
          "internalType": "string",
          "name": "beta_one",
          "type": "string"
        }
      ],
      "name": "enhance",
      "outputs": [],
      "stateMutability": "nonpayable",
      "type": "function"
    },
    {
      "inputs": [
        {
          "internalType": "uint256",
          "name": "tokenId",
          "type": "uint256"
        }
      ],
      "name": "getApproved",
      "outputs": [
        {
          "internalType": "address",
          "name": "",
          "type": "address"
        }
      ],
      "stateMutability": "view",
      "type": "function"
    },
    {
      "inputs": [
        {
          "internalType": "address",
          "name": "owner",
          "type": "address"
        },
        {
          "internalType": "address",
          "name": "operator",
          "type": "address"
        }
      ],
      "name": "isApprovedForAll",
      "outputs": [
        {
          "internalType": "bool",
          "name": "",
          "type": "bool"
        }
      ],
      "stateMutability": "view",
      "type": "function"
    },
    {
      "inputs": [],
      "name": "name",
      "outputs": [
        {
          "internalType": "string",
          "name": "",
          "type": "string"
        }
      ],
      "stateMutability": "view",
      "type": "function"
    },
    {
      "inputs": [
        {
          "internalType": "uint256",
          "name": "tokenId",
          "type": "uint256"
        }
      ],
      "name": "ownerOf",
      "outputs": [
        {
          "internalType": "address",
          "name": "",
          "type": "address"
        }
      ],
      "stateMutability": "view",
      "type": "function"
    },
    {
      "inputs": [
        {
          "internalType": "uint256",
          "name": "",
          "type": "uint256"
        }
      ],
      "name": "paramsByIndex",
      "outputs": [
        {
          "internalType": "string",
          "name": "beta_zero",
          "type": "string"
        },
        {
          "internalType": "string",
          "name": "beta_one",
          "type": "string"
        },
        {
          "internalType": "string",
          "name": "beta_two",
          "type": "string"
        },
        {
          "internalType": "string",
          "name": "regression_beta_zero",
          "type": "string"
        },
        {
          "internalType": "string",
          "name": "regression_beta_one",
          "type": "string"
        }
      ],
      "stateMutability": "view",
      "type": "function"
    },
    {
      "inputs": [
        {
          "internalType": "string",
          "name": "zero",
          "type": "string"
        },
        {
          "internalType": "string",
          "name": "one",
          "type": "string"
        },
        {
          "internalType": "string",
          "name": "two",
          "type": "string"
        }
      ],
      "name": "safeMint",
      "outputs": [],
      "stateMutability": "nonpayable",
      "type": "function"
    },
    {
      "inputs": [
        {
          "internalType": "address",
          "name": "from",
          "type": "address"
        },
        {
          "internalType": "address",
          "name": "to",
          "type": "address"
        },
        {
          "internalType": "uint256",
          "name": "tokenId",
          "type": "uint256"
        }
      ],
      "name": "safeTransferFrom",
      "outputs": [],
      "stateMutability": "nonpayable",
      "type": "function"
    },
    {
      "inputs": [
        {
          "internalType": "address",
          "name": "from",
          "type": "address"
        },
        {
          "internalType": "address",
          "name": "to",
          "type": "address"
        },
        {
          "internalType": "uint256",
          "name": "tokenId",
          "type": "uint256"
        },
        {
          "internalType": "bytes",
          "name": "data",
          "type": "bytes"
        }
      ],
      "name": "safeTransferFrom",
      "outputs": [],
      "stateMutability": "nonpayable",
      "type": "function"
    },
    {
      "inputs": [
        {
          "internalType": "address",
          "name": "operator",
          "type": "address"
        },
        {
          "internalType": "bool",
          "name": "approved",
          "type": "bool"
        }
      ],
      "name": "setApprovalForAll",
      "outputs": [],
      "stateMutability": "nonpayable",
      "type": "function"
    },
    {
      "inputs": [
        {
          "internalType": "bytes4",
          "name": "interfaceId",
          "type": "bytes4"
        }
      ],
      "name": "supportsInterface",
      "outputs": [
        {
          "internalType": "bool",
          "name": "",
          "type": "bool"
        }
      ],
      "stateMutability": "view",
      "type": "function"
    },
    {
      "inputs": [],
      "name": "symbol",
      "outputs": [
        {
          "internalType": "string",
          "name": "",
          "type": "string"
        }
      ],
      "stateMutability": "view",
      "type": "function"
    },
    {
      "inputs": [
        {
          "internalType": "uint256",
          "name": "index",
          "type": "uint256"
        }
      ],
      "name": "tokenByIndex",
      "outputs": [
        {
          "internalType": "uint256",
          "name": "",
          "type": "uint256"
        }
      ],
      "stateMutability": "view",
      "type": "function"
    },
    {
      "inputs": [
        {
          "internalType": "address",
          "name": "owner",
          "type": "address"
        },
        {
          "internalType": "uint256",
          "name": "index",
          "type": "uint256"
        }
      ],
      "name": "tokenOfOwnerByIndex",
      "outputs": [
        {
          "internalType": "uint256",
          "name": "",
          "type": "uint256"
        }
      ],
      "stateMutability": "view",
      "type": "function"
    },
    {
      "inputs": [
        {
          "internalType": "uint256",
          "name": "tokenId",
          "type": "uint256"
        }
      ],
      "name": "tokenURI",
      "outputs": [
        {
          "internalType": "string",
          "name": "",
          "type": "string"
        }
      ],
      "stateMutability": "view",
      "type": "function"
    },
    {
      "inputs": [],
      "name": "totalSupply",
      "outputs": [
        {
          "internalType": "uint256",
          "name": "",
          "type": "uint256"
        }
      ],
      "stateMutability": "view",
      "type": "function"
    },
    {
      "inputs": [
        {
          "internalType": "address",
          "name": "from",
          "type": "address"
        },
        {
          "internalType": "address",
          "name": "to",
          "type": "address"
        },
        {
          "internalType": "uint256",
          "name": "tokenId",
          "type": "uint256"
        }
      ],
      "name": "transferFrom",
      "outputs": [],
      "stateMutability": "nonpayable",
      "type": "function"
    }
  ],
  "bytecode": "0x60806040523480156200001157600080fd5b506040518060400160405280600c81526020017f436c6561722046656564203200000000000000000000000000000000000000008152506040518060400160405280600381526020017f434c46000000000000000000000000000000000000000000000000000000000081525081600090805190602001906200009692919062000151565b508060019080519060200190620000af92919062000151565b505050620000c9600c6200013b60201b620013e91760201c565b604051620000d790620001e2565b604051809103906000f080158015620000f4573d6000803e3d6000fd5b50600b60006101000a81548173ffffffffffffffffffffffffffffffffffffffff021916908373ffffffffffffffffffffffffffffffffffffffff16021790555062000274565b6001816000016000828254019250508190555050565b8280546200015f906200023e565b90600052602060002090601f016020900481019282620001835760008555620001cf565b82601f106200019e57805160ff1916838001178555620001cf565b82800160010185558215620001cf579182015b82811115620001ce578251825591602001919060010190620001b1565b5b509050620001de9190620001f0565b5090565b611bfb806200441583390190565b5b808211156200020b576000816000905550600101620001f1565b5090565b7f4e487b7100000000000000000000000000000000000000000000000000000000600052602260045260246000fd5b600060028204905060018216806200025757607f821691505b602082108114156200026e576200026d6200020f565b5b50919050565b61419180620002846000396000f3fe608060405234801561001057600080fd5b50600436106101215760003560e01c80634f6ccce7116100ad578063b88d4fde11610071578063b88d4fde1461032c578063c87b56dd14610348578063cdb06aee14610378578063e985e9c5146103ac578063f0ab6f5d146103dc57610121565b80634f6ccce7146102625780636352211e1461029257806370a08231146102c257806395d89b41146102f2578063a22cb4651461031057610121565b80631042f0c6116100f45780631042f0c6146101c057806318160ddd146101dc57806323b872dd146101fa5780632f745c591461021657806342842e0e1461024657610121565b806301ffc9a71461012657806306fdde0314610156578063081812fc14610174578063095ea7b3146101a4575b600080fd5b610140600480360381019061013b91906126c4565b6103f8565b60405161014d919061270c565b60405180910390f35b61015e61040a565b60405161016b91906127c0565b60405180910390f35b61018e60048036038101906101899190612818565b61049c565b60405161019b9190612886565b60405180910390f35b6101be60048036038101906101b991906128cd565b6104e2565b005b6101da60048036038101906101d59190612a42565b6105fa565b005b6101e461075a565b6040516101f19190612af8565b60405180910390f35b610214600480360381019061020f9190612b13565b610767565b005b610230600480360381019061022b91906128cd565b6107c7565b60405161023d9190612af8565b60405180910390f35b610260600480360381019061025b9190612b13565b61086c565b005b61027c60048036038101906102779190612818565b61088c565b6040516102899190612af8565b60405180910390f35b6102ac60048036038101906102a79190612818565b6108fd565b6040516102b99190612886565b60405180910390f35b6102dc60048036038101906102d79190612b66565b6109af565b6040516102e99190612af8565b60405180910390f35b6102fa610a67565b60405161030791906127c0565b60405180910390f35b61032a60048036038101906103259190612bbf565b610af9565b005b61034660048036038101906103419190612ca0565b610b0f565b005b610362600480360381019061035d9190612818565b610b71565b60405161036f91906127c0565b60405180910390f35b610392600480360381019061038d9190612818565b610df4565b6040516103a3959493929190612d23565b60405180910390f35b6103c660048036038101906103c19190612d99565b6110d2565b6040516103d3919061270c565b60405180910390f35b6103f660048036038101906103f19190612f40565b611166565b005b6000610403826113ff565b9050919050565b60606000805461041990613026565b80601f016020809104026020016040519081016040528092919081815260200182805461044590613026565b80156104925780601f1061046757610100808354040283529160200191610492565b820191906000526020600020905b81548152906001019060200180831161047557829003601f168201915b5050505050905090565b60006104a782611479565b6004600083815260200190815260200160002060009054906101000a900473ffffffffffffffffffffffffffffffffffffffff169050919050565b60006104ed826108fd565b90508073ffffffffffffffffffffffffffffffffffffffff168373ffffffffffffffffffffffffffffffffffffffff16141561055e576040517f08c379a0000000000000000000000000000000000000000000000000000000008152600401610555906130ca565b60405180910390fd5b8073ffffffffffffffffffffffffffffffffffffffff1661057d6114c4565b73ffffffffffffffffffffffffffffffffffffffff1614806105ac57506105ab816105a66114c4565b6110d2565b5b6105eb576040517f08c379a00000000000000000000000000000000000000000000000000000000081526004016105e29061315c565b60405180910390fd5b6105f583836114cc565b505050565b6000610606600c611585565b9050610612600c6113e9565b6000600d60008381526020019081526020016000209050848160000190805190602001906106419291906125b5565b508381600101908051906020019061065a9291906125b5565b50828160020190805190602001906106739291906125b5565b506040518060400160405280600181526020017f30000000000000000000000000000000000000000000000000000000000000008152508160030190805190602001906106c19291906125b5565b506040518060400160405280600181526020017f300000000000000000000000000000000000000000000000000000000000000081525081600401908051906020019061070f9291906125b5565b5061071a3383611593565b7f30385c845b448a36257a6a1716e6ad2e1bc2cbe333cde1e69fe849ad6511adfe338360405161074b92919061317c565b60405180910390a15050505050565b6000600980549050905090565b6107786107726114c4565b826115b1565b6107b7576040517f08c379a00000000000000000000000000000000000000000000000000000000081526004016107ae90613217565b60405180910390fd5b6107c2838383611646565b505050565b60006107d2836109af565b8210610813576040517f08c379a000000000000000000000000000000000000000000000000000000000815260040161080a906132a9565b60405180910390fd5b600760008473ffffffffffffffffffffffffffffffffffffffff1673ffffffffffffffffffffffffffffffffffffffff168152602001908152602001600020600083815260200190815260200160002054905092915050565b61088783838360405180602001604052806000815250610b0f565b505050565b600061089661075a565b82106108d7576040517f08c379a00000000000000000000000000000000000000000000000000000000081526004016108ce9061333b565b60405180910390fd5b600982815481106108eb576108ea61335b565b5b90600052602060002001549050919050565b6000806002600084815260200190815260200160002060009054906101000a900473ffffffffffffffffffffffffffffffffffffffff169050600073ffffffffffffffffffffffffffffffffffffffff168173ffffffffffffffffffffffffffffffffffffffff1614156109a6576040517f08c379a000000000000000000000000000000000000000000000000000000000815260040161099d906133d6565b60405180910390fd5b80915050919050565b60008073ffffffffffffffffffffffffffffffffffffffff168273ffffffffffffffffffffffffffffffffffffffff161415610a20576040517f08c379a0000000000000000000000000000000000000000000000000000000008152600401610a1790613468565b60405180910390fd5b600360008373ffffffffffffffffffffffffffffffffffffffff1673ffffffffffffffffffffffffffffffffffffffff168152602001908152602001600020549050919050565b606060018054610a7690613026565b80601f0160208091040260200160405190810160405280929190818152602001828054610aa290613026565b8015610aef5780601f10610ac457610100808354040283529160200191610aef565b820191906000526020600020905b815481529060010190602001808311610ad257829003601f168201915b5050505050905090565b610b0b610b046114c4565b83836118ad565b5050565b610b20610b1a6114c4565b836115b1565b610b5f576040517f08c379a0000000000000000000000000000000000000000000000000000000008152600401610b5690613217565b60405180910390fd5b610b6b84848484611a1a565b50505050565b606060006040518060400160405280600a81526020017f436c65617220466565640000000000000000000000000000000000000000000081525090506000600d60008581526020019081526020016000206000018054610bd090613026565b80601f0160208091040260200160405190810160405280929190818152602001828054610bfc90613026565b8015610c495780601f10610c1e57610100808354040283529160200191610c49565b820191906000526020600020905b815481529060010190602001808311610c2c57829003601f168201915b505050505090506000600d60008681526020019081526020016000206001018054610c7390613026565b80601f0160208091040260200160405190810160405280929190818152602001828054610c9f90613026565b8015610cec5780601f10610cc157610100808354040283529160200191610cec565b820191906000526020600020905b815481529060010190602001808311610ccf57829003601f168201915b505050505090506000600d60008781526020019081526020016000206002018054610d1690613026565b80601f0160208091040260200160405190810160405280929190818152602001828054610d4290613026565b8015610d8f5780601f10610d6457610100808354040283529160200191610d8f565b820191906000526020600020905b815481529060010190602001808311610d7257829003601f168201915b50505050509050600084848484604051602001610daf949392919061374a565b6040516020818303038152906040529050610dc981611a76565b604051602001610dd99190613858565b60405160208183030381529060405295505050505050919050565b600d602052806000526040600020600091509050806000018054610e1790613026565b80601f0160208091040260200160405190810160405280929190818152602001828054610e4390613026565b8015610e905780601f10610e6557610100808354040283529160200191610e90565b820191906000526020600020905b815481529060010190602001808311610e7357829003601f168201915b505050505090806001018054610ea590613026565b80601f0160208091040260200160405190810160405280929190818152602001828054610ed190613026565b8015610f1e5780601f10610ef357610100808354040283529160200191610f1e565b820191906000526020600020905b815481529060010190602001808311610f0157829003601f168201915b505050505090806002018054610f3390613026565b80601f0160208091040260200160405190810160405280929190818152602001828054610f5f90613026565b8015610fac5780601f10610f8157610100808354040283529160200191610fac565b820191906000526020600020905b815481529060010190602001808311610f8f57829003601f168201915b505050505090806003018054610fc190613026565b80601f0160208091040260200160405190810160405280929190818152602001828054610fed90613026565b801561103a5780601f1061100f5761010080835404028352916020019161103a565b820191906000526020600020905b81548152906001019060200180831161101d57829003601f168201915b50505050509080600401805461104f90613026565b80601f016020809104026020016040519081016040528092919081815260200182805461107b90613026565b80156110c85780601f1061109d576101008083540402835291602001916110c8565b820191906000526020600020905b8154815290600101906020018083116110ab57829003601f168201915b5050505050905085565b6000600560008473ffffffffffffffffffffffffffffffffffffffff1673ffffffffffffffffffffffffffffffffffffffff16815260200190815260200160002060008373ffffffffffffffffffffffffffffffffffffffff1673ffffffffffffffffffffffffffffffffffffffff16815260200190815260200160002060009054906101000a900460ff16905092915050565b60006040518060400160405280866000600881106111875761118661335b565b5b60200201518152602001866001600881106111a5576111a461335b565b5b60200201518152509050600060405180604001604052806040518060400160405280896002600881106111db576111da61335b565b5b60200201518152602001896003600881106111f9576111f861335b565b5b602002015181525081526020016040518060400160405280896004600881106112255761122461335b565b5b60200201518152602001896005600881106112435761124261335b565b5b6020020151815250815250905060006040518060400160405280886006600881106112715761127061335b565b5b602002015181526020018860076008811061128f5761128e61335b565b5b60200201518152509050600b60009054906101000a900473ffffffffffffffffffffffffffffffffffffffff1673ffffffffffffffffffffffffffffffffffffffff16635fe8c13b8484848a6040518563ffffffff1660e01b81526004016112fa9493929190613aa7565b60206040518083038186803b15801561131257600080fd5b505afa158015611326573d6000803e3d6000fd5b505050506040513d601f19601f8201168201806040525081019061134a9190613b03565b611389576040517f08c379a000000000000000000000000000000000000000000000000000000000815260040161138090613b7c565b60405180910390fd5b84600d60008a815260200190815260200160002060030190805190602001906113b39291906125b5565b5083600d60008a815260200190815260200160002060040190805190602001906113de9291906125b5565b505050505050505050565b6001816000016000828254019250508190555050565b60007f780e9d63000000000000000000000000000000000000000000000000000000007bffffffffffffffffffffffffffffffffffffffffffffffffffffffff1916827bffffffffffffffffffffffffffffffffffffffffffffffffffffffff19161480611472575061147182611bda565b5b9050919050565b61148281611cbc565b6114c1576040517f08c379a00000000000000000000000000000000000000000000000000000000081526004016114b8906133d6565b60405180910390fd5b50565b600033905090565b816004600083815260200190815260200160002060006101000a81548173ffffffffffffffffffffffffffffffffffffffff021916908373ffffffffffffffffffffffffffffffffffffffff160217905550808273ffffffffffffffffffffffffffffffffffffffff1661153f836108fd565b73ffffffffffffffffffffffffffffffffffffffff167f8c5be1e5ebec7d5bd14f71427d1e84f3dd0314c0f7b2291e5b200ac8c7c3b92560405160405180910390a45050565b600081600001549050919050565b6115ad828260405180602001604052806000815250611d28565b5050565b6000806115bd836108fd565b90508073ffffffffffffffffffffffffffffffffffffffff168473ffffffffffffffffffffffffffffffffffffffff1614806115ff57506115fe81856110d2565b5b8061163d57508373ffffffffffffffffffffffffffffffffffffffff166116258461049c565b73ffffffffffffffffffffffffffffffffffffffff16145b91505092915050565b8273ffffffffffffffffffffffffffffffffffffffff16611666826108fd565b73ffffffffffffffffffffffffffffffffffffffff16146116bc576040517f08c379a00000000000000000000000000000000000000000000000000000000081526004016116b390613c0e565b60405180910390fd5b600073ffffffffffffffffffffffffffffffffffffffff168273ffffffffffffffffffffffffffffffffffffffff16141561172c576040517f08c379a000000000000000000000000000000000000000000000000000000000815260040161172390613ca0565b60405180910390fd5b611737838383611d83565b6117426000826114cc565b6001600360008573ffffffffffffffffffffffffffffffffffffffff1673ffffffffffffffffffffffffffffffffffffffff16815260200190815260200160002060008282546117929190613cef565b925050819055506001600360008473ffffffffffffffffffffffffffffffffffffffff1673ffffffffffffffffffffffffffffffffffffffff16815260200190815260200160002060008282546117e99190613d23565b92505081905550816002600083815260200190815260200160002060006101000a81548173ffffffffffffffffffffffffffffffffffffffff021916908373ffffffffffffffffffffffffffffffffffffffff160217905550808273ffffffffffffffffffffffffffffffffffffffff168473ffffffffffffffffffffffffffffffffffffffff167fddf252ad1be2c89b69c2b068fc378daa952ba7f163c4a11628f55a4df523b3ef60405160405180910390a46118a8838383611d93565b505050565b8173ffffffffffffffffffffffffffffffffffffffff168373ffffffffffffffffffffffffffffffffffffffff16141561191c576040517f08c379a000000000000000000000000000000000000000000000000000000000815260040161191390613dc5565b60405180910390fd5b80600560008573ffffffffffffffffffffffffffffffffffffffff1673ffffffffffffffffffffffffffffffffffffffff16815260200190815260200160002060008473ffffffffffffffffffffffffffffffffffffffff1673ffffffffffffffffffffffffffffffffffffffff16815260200190815260200160002060006101000a81548160ff0219169083151502179055508173ffffffffffffffffffffffffffffffffffffffff168373ffffffffffffffffffffffffffffffffffffffff167f17307eab39ab6107e8899845ad3d59bd9653f200f220920489ca2b5937696c3183604051611a0d919061270c565b60405180910390a3505050565b611a25848484611646565b611a3184848484611d98565b611a70576040517f08c379a0000000000000000000000000000000000000000000000000000000008152600401611a6790613e57565b60405180910390fd5b50505050565b6060600082511415611a9957604051806020016040528060008152509050611bd5565b600060405180606001604052806040815260200161411c6040913990506000600360028551611ac89190613d23565b611ad29190613ea6565b6004611ade9190613ed7565b67ffffffffffffffff811115611af757611af6612917565b5b6040519080825280601f01601f191660200182016040528015611b295781602001600182028036833780820191505090505b509050600182016020820185865187015b80821015611b95576003820191508151603f8160121c168501518453600184019350603f81600c1c168501518453600184019350603f8160061c168501518453600184019350603f8116850151845360018401935050611b3a565b5050600386510660018114611bb15760028114611bc457611bcc565b603d6001830353603d6002830353611bcc565b603d60018303535b50505080925050505b919050565b60007f80ac58cd000000000000000000000000000000000000000000000000000000007bffffffffffffffffffffffffffffffffffffffffffffffffffffffff1916827bffffffffffffffffffffffffffffffffffffffffffffffffffffffff19161480611ca557507f5b5e139f000000000000000000000000000000000000000000000000000000007bffffffffffffffffffffffffffffffffffffffffffffffffffffffff1916827bffffffffffffffffffffffffffffffffffffffffffffffffffffffff1916145b80611cb55750611cb482611f2f565b5b9050919050565b60008073ffffffffffffffffffffffffffffffffffffffff166002600084815260200190815260200160002060009054906101000a900473ffffffffffffffffffffffffffffffffffffffff1673ffffffffffffffffffffffffffffffffffffffff1614159050919050565b611d328383611f99565b611d3f6000848484611d98565b611d7e576040517f08c379a0000000000000000000000000000000000000000000000000000000008152600401611d7590613e57565b60405180910390fd5b505050565b611d8e838383612173565b505050565b505050565b6000611db98473ffffffffffffffffffffffffffffffffffffffff16612287565b15611f22578373ffffffffffffffffffffffffffffffffffffffff1663150b7a02611de26114c4565b8786866040518563ffffffff1660e01b8152600401611e049493929190613f86565b602060405180830381600087803b158015611e1e57600080fd5b505af1925050508015611e4f57506040513d601f19601f82011682018060405250810190611e4c9190613fe7565b60015b611ed2573d8060008114611e7f576040519150601f19603f3d011682016040523d82523d6000602084013e611e84565b606091505b50600081511415611eca576040517f08c379a0000000000000000000000000000000000000000000000000000000008152600401611ec190613e57565b60405180910390fd5b805181602001fd5b63150b7a0260e01b7bffffffffffffffffffffffffffffffffffffffffffffffffffffffff1916817bffffffffffffffffffffffffffffffffffffffffffffffffffffffff191614915050611f27565b600190505b949350505050565b60007f01ffc9a7000000000000000000000000000000000000000000000000000000007bffffffffffffffffffffffffffffffffffffffffffffffffffffffff1916827bffffffffffffffffffffffffffffffffffffffffffffffffffffffff1916149050919050565b600073ffffffffffffffffffffffffffffffffffffffff168273ffffffffffffffffffffffffffffffffffffffff161415612009576040517f08c379a000000000000000000000000000000000000000000000000000000000815260040161200090614060565b60405180910390fd5b61201281611cbc565b15612052576040517f08c379a0000000000000000000000000000000000000000000000000000000008152600401612049906140cc565b60405180910390fd5b61205e60008383611d83565b6001600360008473ffffffffffffffffffffffffffffffffffffffff1673ffffffffffffffffffffffffffffffffffffffff16815260200190815260200160002060008282546120ae9190613d23565b92505081905550816002600083815260200190815260200160002060006101000a81548173ffffffffffffffffffffffffffffffffffffffff021916908373ffffffffffffffffffffffffffffffffffffffff160217905550808273ffffffffffffffffffffffffffffffffffffffff16600073ffffffffffffffffffffffffffffffffffffffff167fddf252ad1be2c89b69c2b068fc378daa952ba7f163c4a11628f55a4df523b3ef60405160405180910390a461216f60008383611d93565b5050565b61217e8383836122aa565b600073ffffffffffffffffffffffffffffffffffffffff168373ffffffffffffffffffffffffffffffffffffffff1614156121c1576121bc816122af565b612200565b8173ffffffffffffffffffffffffffffffffffffffff168373ffffffffffffffffffffffffffffffffffffffff16146121ff576121fe83826122f8565b5b5b600073ffffffffffffffffffffffffffffffffffffffff168273ffffffffffffffffffffffffffffffffffffffff1614156122435761223e81612465565b612282565b8273ffffffffffffffffffffffffffffffffffffffff168273ffffffffffffffffffffffffffffffffffffffff1614612281576122808282612536565b5b5b505050565b6000808273ffffffffffffffffffffffffffffffffffffffff163b119050919050565b505050565b600980549050600a600083815260200190815260200160002081905550600981908060018154018082558091505060019003906000526020600020016000909190919091505550565b60006001612305846109af565b61230f9190613cef565b90506000600860008481526020019081526020016000205490508181146123f4576000600760008673ffffffffffffffffffffffffffffffffffffffff1673ffffffffffffffffffffffffffffffffffffffff168152602001908152602001600020600084815260200190815260200160002054905080600760008773ffffffffffffffffffffffffffffffffffffffff1673ffffffffffffffffffffffffffffffffffffffff168152602001908152602001600020600084815260200190815260200160002081905550816008600083815260200190815260200160002081905550505b6008600084815260200190815260200160002060009055600760008573ffffffffffffffffffffffffffffffffffffffff1673ffffffffffffffffffffffffffffffffffffffff16815260200190815260200160002060008381526020019081526020016000206000905550505050565b600060016009805490506124799190613cef565b90506000600a60008481526020019081526020016000205490506000600983815481106124a9576124a861335b565b5b9060005260206000200154905080600983815481106124cb576124ca61335b565b5b906000526020600020018190555081600a600083815260200190815260200160002081905550600a600085815260200190815260200160002060009055600980548061251a576125196140ec565b5b6001900381819060005260206000200160009055905550505050565b6000612541836109af565b905081600760008573ffffffffffffffffffffffffffffffffffffffff1673ffffffffffffffffffffffffffffffffffffffff168152602001908152602001600020600083815260200190815260200160002081905550806008600084815260200190815260200160002081905550505050565b8280546125c190613026565b90600052602060002090601f0160209004810192826125e3576000855561262a565b82601f106125fc57805160ff191683800117855561262a565b8280016001018555821561262a579182015b8281111561262957825182559160200191906001019061260e565b5b509050612637919061263b565b5090565b5b8082111561265457600081600090555060010161263c565b5090565b6000604051905090565b600080fd5b600080fd5b60007fffffffff0000000000000000000000000000000000000000000000000000000082169050919050565b6126a18161266c565b81146126ac57600080fd5b50565b6000813590506126be81612698565b92915050565b6000602082840312156126da576126d9612662565b5b60006126e8848285016126af565b91505092915050565b60008115159050919050565b612706816126f1565b82525050565b600060208201905061272160008301846126fd565b92915050565b600081519050919050565b600082825260208201905092915050565b60005b83811015612761578082015181840152602081019050612746565b83811115612770576000848401525b50505050565b6000601f19601f8301169050919050565b600061279282612727565b61279c8185612732565b93506127ac818560208601612743565b6127b581612776565b840191505092915050565b600060208201905081810360008301526127da8184612787565b905092915050565b6000819050919050565b6127f5816127e2565b811461280057600080fd5b50565b600081359050612812816127ec565b92915050565b60006020828403121561282e5761282d612662565b5b600061283c84828501612803565b91505092915050565b600073ffffffffffffffffffffffffffffffffffffffff82169050919050565b600061287082612845565b9050919050565b61288081612865565b82525050565b600060208201905061289b6000830184612877565b92915050565b6128aa81612865565b81146128b557600080fd5b50565b6000813590506128c7816128a1565b92915050565b600080604083850312156128e4576128e3612662565b5b60006128f2858286016128b8565b925050602061290385828601612803565b9150509250929050565b600080fd5b600080fd5b7f4e487b7100000000000000000000000000000000000000000000000000000000600052604160045260246000fd5b61294f82612776565b810181811067ffffffffffffffff8211171561296e5761296d612917565b5b80604052505050565b6000612981612658565b905061298d8282612946565b919050565b600067ffffffffffffffff8211156129ad576129ac612917565b5b6129b682612776565b9050602081019050919050565b82818337600083830152505050565b60006129e56129e084612992565b612977565b905082815260208101848484011115612a0157612a00612912565b5b612a0c8482856129c3565b509392505050565b600082601f830112612a2957612a2861290d565b5b8135612a398482602086016129d2565b91505092915050565b600080600060608486031215612a5b57612a5a612662565b5b600084013567ffffffffffffffff811115612a7957612a78612667565b5b612a8586828701612a14565b935050602084013567ffffffffffffffff811115612aa657612aa5612667565b5b612ab286828701612a14565b925050604084013567ffffffffffffffff811115612ad357612ad2612667565b5b612adf86828701612a14565b9150509250925092565b612af2816127e2565b82525050565b6000602082019050612b0d6000830184612ae9565b92915050565b600080600060608486031215612b2c57612b2b612662565b5b6000612b3a868287016128b8565b9350506020612b4b868287016128b8565b9250506040612b5c86828701612803565b9150509250925092565b600060208284031215612b7c57612b7b612662565b5b6000612b8a848285016128b8565b91505092915050565b612b9c816126f1565b8114612ba757600080fd5b50565b600081359050612bb981612b93565b92915050565b60008060408385031215612bd657612bd5612662565b5b6000612be4858286016128b8565b9250506020612bf585828601612baa565b9150509250929050565b600067ffffffffffffffff821115612c1a57612c19612917565b5b612c2382612776565b9050602081019050919050565b6000612c43612c3e84612bff565b612977565b905082815260208101848484011115612c5f57612c5e612912565b5b612c6a8482856129c3565b509392505050565b600082601f830112612c8757612c8661290d565b5b8135612c97848260208601612c30565b91505092915050565b60008060008060808587031215612cba57612cb9612662565b5b6000612cc8878288016128b8565b9450506020612cd9878288016128b8565b9350506040612cea87828801612803565b925050606085013567ffffffffffffffff811115612d0b57612d0a612667565b5b612d1787828801612c72565b91505092959194509250565b600060a0820190508181036000830152612d3d8188612787565b90508181036020830152612d518187612787565b90508181036040830152612d658186612787565b90508181036060830152612d798185612787565b90508181036080830152612d8d8184612787565b90509695505050505050565b60008060408385031215612db057612daf612662565b5b6000612dbe858286016128b8565b9250506020612dcf858286016128b8565b9150509250929050565b600067ffffffffffffffff821115612df457612df3612917565b5b602082029050919050565b600080fd5b6000612e17612e1284612dd9565b612977565b90508060208402830185811115612e3157612e30612dff565b5b835b81811015612e5a5780612e468882612803565b845260208401935050602081019050612e33565b5050509392505050565b600082601f830112612e7957612e7861290d565b5b6008612e86848285612e04565b91505092915050565b600067ffffffffffffffff821115612eaa57612ea9612917565b5b602082029050919050565b6000612ec8612ec384612e8f565b612977565b90508060208402830185811115612ee257612ee1612dff565b5b835b81811015612f0b5780612ef78882612803565b845260208401935050602081019050612ee4565b5050509392505050565b600082601f830112612f2a57612f2961290d565b5b6004612f37848285612eb5565b91505092915050565b60008060008060006101e08688031215612f5d57612f5c612662565b5b6000612f6b88828901612803565b9550506020612f7c88828901612e64565b945050610120612f8e88828901612f15565b9350506101a086013567ffffffffffffffff811115612fb057612faf612667565b5b612fbc88828901612a14565b9250506101c086013567ffffffffffffffff811115612fde57612fdd612667565b5b612fea88828901612a14565b9150509295509295909350565b7f4e487b7100000000000000000000000000000000000000000000000000000000600052602260045260246000fd5b6000600282049050600182168061303e57607f821691505b6020821081141561305257613051612ff7565b5b50919050565b7f4552433732313a20617070726f76616c20746f2063757272656e74206f776e6560008201527f7200000000000000000000000000000000000000000000000000000000000000602082015250565b60006130b4602183612732565b91506130bf82613058565b604082019050919050565b600060208201905081810360008301526130e3816130a7565b9050919050565b7f4552433732313a20617070726f76652063616c6c6572206973206e6f7420746f60008201527f6b656e206f776e6572206e6f7220617070726f76656420666f7220616c6c0000602082015250565b6000613146603e83612732565b9150613151826130ea565b604082019050919050565b6000602082019050818103600083015261317581613139565b9050919050565b60006040820190506131916000830185612877565b61319e6020830184612ae9565b9392505050565b7f4552433732313a2063616c6c6572206973206e6f7420746f6b656e206f776e6560008201527f72206e6f7220617070726f766564000000000000000000000000000000000000602082015250565b6000613201602e83612732565b915061320c826131a5565b604082019050919050565b60006020820190508181036000830152613230816131f4565b9050919050565b7f455243373231456e756d657261626c653a206f776e657220696e646578206f7560008201527f74206f6620626f756e6473000000000000000000000000000000000000000000602082015250565b6000613293602b83612732565b915061329e82613237565b604082019050919050565b600060208201905081810360008301526132c281613286565b9050919050565b7f455243373231456e756d657261626c653a20676c6f62616c20696e646578206f60008201527f7574206f6620626f756e64730000000000000000000000000000000000000000602082015250565b6000613325602c83612732565b9150613330826132c9565b604082019050919050565b6000602082019050818103600083015261335481613318565b9050919050565b7f4e487b7100000000000000000000000000000000000000000000000000000000600052603260045260246000fd5b7f4552433732313a20696e76616c696420746f6b656e2049440000000000000000600082015250565b60006133c0601883612732565b91506133cb8261338a565b602082019050919050565b600060208201905081810360008301526133ef816133b3565b9050919050565b7f4552433732313a2061646472657373207a65726f206973206e6f74206120766160008201527f6c6964206f776e65720000000000000000000000000000000000000000000000602082015250565b6000613452602983612732565b915061345d826133f6565b604082019050919050565b6000602082019050818103600083015261348181613445565b9050919050565b600081905092915050565b7f7b00000000000000000000000000000000000000000000000000000000000000600082015250565b60006134c9600183613488565b91506134d482613493565b600182019050919050565b7f226e616d65223a20220000000000000000000000000000000000000000000000600082015250565b6000613515600983613488565b9150613520826134df565b600982019050919050565b600061353682612727565b6135408185613488565b9350613550818560208601612743565b80840191505092915050565b7f222c000000000000000000000000000000000000000000000000000000000000600082015250565b6000613592600283613488565b915061359d8261355c565b600282019050919050565b7f226465736372697074696f6e223a2022596f757220707269766174652070657260008201527f736f6e616c697a65642066656564000000000000000000000000000000000000602082015250565b6000613604602e83613488565b915061360f826135a8565b602e82019050919050565b7f22626574615f7a65726f223a2022000000000000000000000000000000000000600082015250565b6000613650600e83613488565b915061365b8261361a565b600e82019050919050565b7f22626574615f6f6e65223a202200000000000000000000000000000000000000600082015250565b600061369c600d83613488565b91506136a782613666565b600d82019050919050565b7f22626574615f74776f223a202200000000000000000000000000000000000000600082015250565b60006136e8600d83613488565b91506136f3826136b2565b600d82019050919050565b7f7d00000000000000000000000000000000000000000000000000000000000000600082015250565b6000613734600183613488565b915061373f826136fe565b600182019050919050565b6000613755826134bc565b915061376082613508565b915061376c828761352b565b915061377782613585565b9150613782826135f7565b915061378d82613585565b915061379882613643565b91506137a4828661352b565b91506137af82613585565b91506137ba8261368f565b91506137c6828561352b565b91506137d182613585565b91506137dc826136db565b91506137e8828461352b565b91506137f382613585565b91506137fe82613727565b915081905095945050505050565b7f646174613a6170706c69636174696f6e2f6a736f6e3b6261736536342c000000600082015250565b6000613842601d83613488565b915061384d8261380c565b601d82019050919050565b600061386382613835565b915061386f828461352b565b915081905092915050565b600060029050919050565b600081905092915050565b6000819050919050565b6138a3816127e2565b82525050565b60006138b5838361389a565b60208301905092915050565b6000602082019050919050565b6138d78161387a565b6138e18184613885565b92506138ec82613890565b8060005b8381101561391d57815161390487826138a9565b965061390f836138c1565b9250506001810190506138f0565b505050505050565b600060029050919050565b600081905092915050565b6000819050919050565b600081905092915050565b6139598161387a565b6139638184613945565b925061396e82613890565b8060005b8381101561399f57815161398687826138a9565b9650613991836138c1565b925050600181019050613972565b505050505050565b60006139b38383613950565b60408301905092915050565b6000602082019050919050565b6139d581613925565b6139df8184613930565b92506139ea8261393b565b8060005b83811015613a1b578151613a0287826139a7565b9650613a0d836139bf565b9250506001810190506139ee565b505050505050565b600060049050919050565b600081905092915050565b6000819050919050565b6000602082019050919050565b613a5981613a23565b613a638184613a2e565b9250613a6e82613a39565b8060005b83811015613a9f578151613a8687826138a9565b9650613a9183613a43565b925050600181019050613a72565b505050505050565b600061018082019050613abd60008301876138ce565b613aca60408301866139cc565b613ad760c08301856138ce565b613ae5610100830184613a50565b95945050505050565b600081519050613afd81612b93565b92915050565b600060208284031215613b1957613b18612662565b5b6000613b2784828501613aee565b91505092915050565b7f696e76616c69642070726f6f6600000000000000000000000000000000000000600082015250565b6000613b66600d83612732565b9150613b7182613b30565b602082019050919050565b60006020820190508181036000830152613b9581613b59565b9050919050565b7f4552433732313a207472616e736665722066726f6d20696e636f72726563742060008201527f6f776e6572000000000000000000000000000000000000000000000000000000602082015250565b6000613bf8602583612732565b9150613c0382613b9c565b604082019050919050565b60006020820190508181036000830152613c2781613beb565b9050919050565b7f4552433732313a207472616e7366657220746f20746865207a65726f2061646460008201527f7265737300000000000000000000000000000000000000000000000000000000602082015250565b6000613c8a602483612732565b9150613c9582613c2e565b604082019050919050565b60006020820190508181036000830152613cb981613c7d565b9050919050565b7f4e487b7100000000000000000000000000000000000000000000000000000000600052601160045260246000fd5b6000613cfa826127e2565b9150613d05836127e2565b925082821015613d1857613d17613cc0565b5b828203905092915050565b6000613d2e826127e2565b9150613d39836127e2565b9250827fffffffffffffffffffffffffffffffffffffffffffffffffffffffffffffffff03821115613d6e57613d6d613cc0565b5b828201905092915050565b7f4552433732313a20617070726f766520746f2063616c6c657200000000000000600082015250565b6000613daf601983612732565b9150613dba82613d79565b602082019050919050565b60006020820190508181036000830152613dde81613da2565b9050919050565b7f4552433732313a207472616e7366657220746f206e6f6e20455243373231526560008201527f63656976657220696d706c656d656e7465720000000000000000000000000000602082015250565b6000613e41603283612732565b9150613e4c82613de5565b604082019050919050565b60006020820190508181036000830152613e7081613e34565b9050919050565b7f4e487b7100000000000000000000000000000000000000000000000000000000600052601260045260246000fd5b6000613eb1826127e2565b9150613ebc836127e2565b925082613ecc57613ecb613e77565b5b828204905092915050565b6000613ee2826127e2565b9150613eed836127e2565b9250817fffffffffffffffffffffffffffffffffffffffffffffffffffffffffffffffff0483118215151615613f2657613f25613cc0565b5b828202905092915050565b600081519050919050565b600082825260208201905092915050565b6000613f5882613f31565b613f628185613f3c565b9350613f72818560208601612743565b613f7b81612776565b840191505092915050565b6000608082019050613f9b6000830187612877565b613fa86020830186612877565b613fb56040830185612ae9565b8181036060830152613fc78184613f4d565b905095945050505050565b600081519050613fe181612698565b92915050565b600060208284031215613ffd57613ffc612662565b5b600061400b84828501613fd2565b91505092915050565b7f4552433732313a206d696e7420746f20746865207a65726f2061646472657373600082015250565b600061404a602083612732565b915061405582614014565b602082019050919050565b600060208201905081810360008301526140798161403d565b9050919050565b7f4552433732313a20746f6b656e20616c7265616479206d696e74656400000000600082015250565b60006140b6601c83612732565b91506140c182614080565b602082019050919050565b600060208201905081810360008301526140e5816140a9565b9050919050565b7f4e487b7100000000000000000000000000000000000000000000000000000000600052603160045260246000fdfe4142434445464748494a4b4c4d4e4f505152535455565758595a6162636465666768696a6b6c6d6e6f707172737475767778797a303132333435363738392b2fa2646970667358221220e97288165348cdb21bf81c0d9f75ce5eeb3b59e6cdfb9284346f3936604bea1264736f6c63430008090033608060405234801561001057600080fd5b50611bdb806100206000396000f3fe608060405234801561001057600080fd5b506004361061002b5760003560e01c80635fe8c13b14610030575b600080fd5b61004a60048036038101906100459190611682565b610060565b6040516100579190611706565b60405180910390f35b600061006a611252565b60405180604001604052808760006002811061008957610088611721565b5b60200201518152602001876001600281106100a7576100a6611721565b5b6020020151815250816000018190525060405180604001604052806040518060400160405280886000600281106100e1576100e0611721565b5b60200201516000600281106100f9576100f8611721565b5b602002015181526020018860006002811061011757610116611721565b5b602002015160016002811061012f5761012e611721565b5b6020020151815250815260200160405180604001604052808860016002811061015b5761015a611721565b5b602002015160006002811061017357610172611721565b5b602002015181526020018860016002811061019157610190611721565b5b60200201516001600281106101a9576101a8611721565b5b602002015181525081525081602001819052506040518060400160405280856000600281106101db576101da611721565b5b60200201518152602001856001600281106101f9576101f8611721565b5b602002015181525081604001819052506000600467ffffffffffffffff811115610226576102256113b9565b5b6040519080825280602002602001820160405280156102545781602001602082028036833780820191505090505b50905060005b60048110156102ad5784816004811061027657610275611721565b5b602002015182828151811061028e5761028d611721565b5b60200260200101818152505080806102a59061177f565b91505061025a565b5060006102ba82846102da565b14156102cb576001925050506102d2565b6000925050505b949350505050565b6000807f30644e72e131a029b85045b68181585d2833e84879b9709143e1f593f00000019050600061030a6104cd565b90508060800151516001865161032091906117c8565b14610360576040517f08c379a00000000000000000000000000000000000000000000000000000000081526004016103579061187b565b60405180910390fd5b60006040518060400160405280600081526020016000815250905060005b865181101561044f578387828151811061039b5761039a611721565b5b6020026020010151106103e3576040517f08c379a00000000000000000000000000000000000000000000000000000000081526004016103da906118e7565b60405180910390fd5b61043a8261043585608001516001856103fc91906117c8565b8151811061040d5761040c611721565b5b60200260200101518a858151811061042857610427611721565b5b6020026020010151610a39565b610b16565b915080806104479061177f565b91505061037e565b5061047981836080015160008151811061046c5761046b611721565b5b6020026020010151610b16565b90506104af61048b8660000151610c19565b8660200151846000015185602001518587604001518b604001518960600151610cbe565b6104bf57600193505050506104c7565b600093505050505b92915050565b6104d5611285565b60405180604001604052807f2d4d9aa7e302d9df41749d5507949d05dbea33fbb16c643b22f599a2be6df2e281526020017f14bedd503c37ceb061d8ec60209fe345ce89830a19230301f076caff004d19268152508160000181905250604051806040016040528060405180604001604052807f0967032fcbf776d1afc985f88877f182d38480a653f2decaa9794cbc3bf3060c81526020017f0e187847ad4c798374d0d6732bf501847dd68bc0e071241e0213bc7fc13db7ab815250815260200160405180604001604052807f304cfbd1e08a704a99f5e847d93f8c3caafddec46b7a0d379da69a4d112346a781526020017f1739c1b1a457a8c7313123d24d2f9192f896b7c63eea05a9d57f06547ad0cec88152508152508160200181905250604051806040016040528060405180604001604052807f198e9393920d483a7260bfb731fb5d25f1aa493335a9e71297e485b7aef312c281526020017f1800deef121f1e76426a00665e5c4479674322d4f75edadd46debd5cd992f6ed815250815260200160405180604001604052807f090689d0585ff075ec9e99ad690c3395bc4b313370b38ef355acdadcd122975b81526020017f12c85ea5db8c6deb4aab71808dcb408fe3d1e7690c43d37b4ce6cc0166fa7daa8152508152508160400181905250604051806040016040528060405180604001604052807f2ecfc70875cc3e16e661354a0c7b8d2016d1f4093cb6b30ef164c5d10f91ebfd81526020017f052757557db49bfeda9f535bc3ef8e5a51fd2fbcb97bef2fd74abcd4d3f94dcd815250815260200160405180604001604052807f043f4bb541e209469fdd87ced06abb9a842aabeb5162cdb47368d5e188afe82c81526020017f02206ab59a572fd82aa7c2ce27818d40c1bf15e65907386f6946934487eaf0e68152508152508160600181905250600567ffffffffffffffff81111561079c5761079b6113b9565b5b6040519080825280602002602001820160405280156107d557816020015b6107c26112cc565b8152602001906001900390816107ba5790505b50816080018190525060405180604001604052807f0a6466381ace31347d9b65e267b448a2115511d4ecd25e07d905554310709f3481526020017f0d8473cb7db721adbd7268597432ceac5e0b6491e7ec0296c1f2d14ac6e7e74e815250816080015160008151811061084b5761084a611721565b5b602002602001018190525060405180604001604052807f2108a2d5f40ae59b1a45df9f8ebfccfb413c8302dd420ee2d331f47ee0d2f83081526020017f1daeb8bc93851fc5f9dc22933ebb161f91690ec181d39e71a4bd4f82b9933c6681525081608001516001815181106108c3576108c2611721565b5b602002602001018190525060405180604001604052807f1f27882c3ae4d932deb2b102291da58e23d98bd126fa48fd20fc0b83678c6e3181526020017f020b62d991df4d6894a9473e1197c782fe6462a45bdbe021d864e2192edcf6b5815250816080015160028151811061093b5761093a611721565b5b602002602001018190525060405180604001604052807f058be8377bbc91a104f17b3277ae62b03e6081f84a1987b4c22758e59390a79281526020017f102f459184c7b8b819ef91a8ebfee3ad9e1a6501a0fa49382c87883b03e0478d81525081608001516003815181106109b3576109b2611721565b5b602002602001018190525060405180604001604052807f27df2eb7d4e9836f75cc76f790348f2f96deaa497cd113f369664af7532e268881526020017f068b009d7bddfa76af37e1fcf96f635ac3c5660b42e242510b35d253089f4a448152508160800151600481518110610a2b57610a2a611721565b5b602002602001018190525090565b610a416112cc565b610a496112e6565b836000015181600060038110610a6257610a61611721565b5b602002018181525050836020015181600160038110610a8457610a83611721565b5b6020020181815250508281600260038110610aa257610aa1611721565b5b602002018181525050600060608360808460076107d05a03fa90508060008114610acb57610acd565bfe5b5080610b0e576040517f08c379a0000000000000000000000000000000000000000000000000000000008152600401610b0590611953565b60405180910390fd5b505092915050565b610b1e6112cc565b610b26611308565b836000015181600060048110610b3f57610b3e611721565b5b602002018181525050836020015181600160048110610b6157610b60611721565b5b602002018181525050826000015181600260048110610b8357610b82611721565b5b602002018181525050826020015181600360048110610ba557610ba4611721565b5b602002018181525050600060608360c08460066107d05a03fa90508060008114610bce57610bd0565bfe5b5080610c11576040517f08c379a0000000000000000000000000000000000000000000000000000000008152600401610c08906119bf565b60405180910390fd5b505092915050565b610c216112cc565b60007f30644e72e131a029b85045b68181585d97816a916871ca8d3c208c16d87cfd47905060008360000151148015610c5e575060008360200151145b15610c82576040518060400160405280600081526020016000815250915050610cb9565b604051806040016040528084600001518152602001828560200151610ca79190611a0e565b83610cb29190611a3f565b8152509150505b919050565b600080600467ffffffffffffffff811115610cdc57610cdb6113b9565b5b604051908082528060200260200182016040528015610d1557816020015b610d026112cc565b815260200190600190039081610cfa5790505b5090506000600467ffffffffffffffff811115610d3557610d346113b9565b5b604051908082528060200260200182016040528015610d6e57816020015b610d5b61132a565b815260200190600190039081610d535790505b5090508a82600081518110610d8657610d85611721565b5b60200260200101819052508882600181518110610da657610da5611721565b5b60200260200101819052508682600281518110610dc657610dc5611721565b5b60200260200101819052508482600381518110610de657610de5611721565b5b60200260200101819052508981600081518110610e0657610e05611721565b5b60200260200101819052508781600181518110610e2657610e25611721565b5b60200260200101819052508581600281518110610e4657610e45611721565b5b60200260200101819052508381600381518110610e6657610e65611721565b5b6020026020010181905250610e7b8282610e8b565b9250505098975050505050505050565b60008151835114610ed1576040517f08c379a0000000000000000000000000000000000000000000000000000000008152600401610ec890611abf565b60405180910390fd5b6000835190506000600682610ee69190611adf565b905060008167ffffffffffffffff811115610f0457610f036113b9565b5b604051908082528060200260200182016040528015610f325781602001602082028036833780820191505090505b50905060005b838110156111b757868181518110610f5357610f52611721565b5b602002602001015160000151826000600684610f6f9190611adf565b610f7991906117c8565b81518110610f8a57610f89611721565b5b602002602001018181525050868181518110610fa957610fa8611721565b5b602002602001015160200151826001600684610fc59190611adf565b610fcf91906117c8565b81518110610fe057610fdf611721565b5b602002602001018181525050858181518110610fff57610ffe611721565b5b60200260200101516000015160006002811061101e5761101d611721565b5b60200201518260026006846110339190611adf565b61103d91906117c8565b8151811061104e5761104d611721565b5b60200260200101818152505085818151811061106d5761106c611721565b5b60200260200101516000015160016002811061108c5761108b611721565b5b60200201518260036006846110a19190611adf565b6110ab91906117c8565b815181106110bc576110bb611721565b5b6020026020010181815250508581815181106110db576110da611721565b5b6020026020010151602001516000600281106110fa576110f9611721565b5b602002015182600460068461110f9190611adf565b61111991906117c8565b8151811061112a57611129611721565b5b60200260200101818152505085818151811061114957611148611721565b5b60200260200101516020015160016002811061116857611167611721565b5b602002015182600560068461117d9190611adf565b61118791906117c8565b8151811061119857611197611721565b5b60200260200101818152505080806111af9061177f565b915050610f38565b506111c0611350565b6000602082602086026020860160086107d05a03fa905080600081146111e5576111e7565bfe5b5080611228576040517f08c379a000000000000000000000000000000000000000000000000000000000815260040161121f90611b85565b60405180910390fd5b60008260006001811061123e5761123d611721565b5b602002015114159550505050505092915050565b60405180606001604052806112656112cc565b815260200161127261132a565b815260200161127f6112cc565b81525090565b6040518060a001604052806112986112cc565b81526020016112a561132a565b81526020016112b261132a565b81526020016112bf61132a565b8152602001606081525090565b604051806040016040528060008152602001600081525090565b6040518060600160405280600390602082028036833780820191505090505090565b6040518060800160405280600490602082028036833780820191505090505090565b604051806040016040528061133d611372565b815260200161134a611372565b81525090565b6040518060200160405280600190602082028036833780820191505090505090565b6040518060400160405280600290602082028036833780820191505090505090565b6000604051905090565b600080fd5b600080fd5b6000601f19601f8301169050919050565b7f4e487b7100000000000000000000000000000000000000000000000000000000600052604160045260246000fd5b6113f1826113a8565b810181811067ffffffffffffffff821117156114105761140f6113b9565b5b80604052505050565b6000611423611394565b905061142f82826113e8565b919050565b600067ffffffffffffffff82111561144f5761144e6113b9565b5b602082029050919050565b600080fd5b6000819050919050565b6114728161145f565b811461147d57600080fd5b50565b60008135905061148f81611469565b92915050565b60006114a86114a384611434565b611419565b905080602084028301858111156114c2576114c161145a565b5b835b818110156114eb57806114d78882611480565b8452602084019350506020810190506114c4565b5050509392505050565b600082601f83011261150a576115096113a3565b5b6002611517848285611495565b91505092915050565b600067ffffffffffffffff82111561153b5761153a6113b9565b5b602082029050919050565b600061155961155484611520565b611419565b905080604084028301858111156115735761157261145a565b5b835b8181101561159c578061158888826114f5565b845260208401935050604081019050611575565b5050509392505050565b600082601f8301126115bb576115ba6113a3565b5b60026115c8848285611546565b91505092915050565b600067ffffffffffffffff8211156115ec576115eb6113b9565b5b602082029050919050565b600061160a611605846115d1565b611419565b905080602084028301858111156116245761162361145a565b5b835b8181101561164d57806116398882611480565b845260208401935050602081019050611626565b5050509392505050565b600082601f83011261166c5761166b6113a3565b5b60046116798482856115f7565b91505092915050565b600080600080610180858703121561169d5761169c61139e565b5b60006116ab878288016114f5565b94505060406116bc878288016115a6565b93505060c06116cd878288016114f5565b9250506101006116df87828801611657565b91505092959194509250565b60008115159050919050565b611700816116eb565b82525050565b600060208201905061171b60008301846116f7565b92915050565b7f4e487b7100000000000000000000000000000000000000000000000000000000600052603260045260246000fd5b7f4e487b7100000000000000000000000000000000000000000000000000000000600052601160045260246000fd5b600061178a8261145f565b91507fffffffffffffffffffffffffffffffffffffffffffffffffffffffffffffffff8214156117bd576117bc611750565b5b600182019050919050565b60006117d38261145f565b91506117de8361145f565b9250827fffffffffffffffffffffffffffffffffffffffffffffffffffffffffffffffff0382111561181357611812611750565b5b828201905092915050565b600082825260208201905092915050565b7f76657269666965722d6261642d696e7075740000000000000000000000000000600082015250565b600061186560128361181e565b91506118708261182f565b602082019050919050565b6000602082019050818103600083015261189481611858565b9050919050565b7f76657269666965722d6774652d736e61726b2d7363616c61722d6669656c6400600082015250565b60006118d1601f8361181e565b91506118dc8261189b565b602082019050919050565b60006020820190508181036000830152611900816118c4565b9050919050565b7f70616972696e672d6d756c2d6661696c65640000000000000000000000000000600082015250565b600061193d60128361181e565b915061194882611907565b602082019050919050565b6000602082019050818103600083015261196c81611930565b9050919050565b7f70616972696e672d6164642d6661696c65640000000000000000000000000000600082015250565b60006119a960128361181e565b91506119b482611973565b602082019050919050565b600060208201905081810360008301526119d88161199c565b9050919050565b7f4e487b7100000000000000000000000000000000000000000000000000000000600052601260045260246000fd5b6000611a198261145f565b9150611a248361145f565b925082611a3457611a336119df565b5b828206905092915050565b6000611a4a8261145f565b9150611a558361145f565b925082821015611a6857611a67611750565b5b828203905092915050565b7f70616972696e672d6c656e677468732d6661696c656400000000000000000000600082015250565b6000611aa960168361181e565b9150611ab482611a73565b602082019050919050565b60006020820190508181036000830152611ad881611a9c565b9050919050565b6000611aea8261145f565b9150611af58361145f565b9250817fffffffffffffffffffffffffffffffffffffffffffffffffffffffffffffffff0483118215151615611b2e57611b2d611750565b5b828202905092915050565b7f70616972696e672d6f70636f64652d6661696c65640000000000000000000000600082015250565b6000611b6f60158361181e565b9150611b7a82611b39565b602082019050919050565b60006020820190508181036000830152611b9e81611b62565b905091905056fea2646970667358221220ecbdd3be58ac0e683e79c55139f52e9fdd491deb63ee3e19bcf9b3bca503f6f564736f6c63430008090033",
  "linkReferences": {},
  "deployedLinkReferences": {}
}